:020000040000FA
:1008300002095102152DFFFFFFFFFFFFFFFFFFFF22
:10084000FFFFFFFFFFFFFFFFFFFFFFFFFFFFFFFFB8
:10085000FFFFFFFFFFFFFFFFFFFFFF021931FFFF59
:10086000FFFFFFFFFFFFFFFFFFFFFFFFFFFFFFFF98
:10087000FFFFFFFFFFFFFFFFFFFFFFFFFFFFFFFF88
:10088000FFFFFF0215A3FFFFFFFFFFFFFFFFFFFFBB
:10089000FFFFFFFFFFFFFFFFFFFFFFFFFFFFFFFF68
:1008A000FFFFFFFFFFFFFFFFFFFFFFFFFFFFFFFF58
:1008B000FFFFFF0213830D1B0D1B0D1B0D1B0D1BDB
:1008C0000D1B0D1B0D1B0D1B0D1B0D1B0D1B0D1BE8
:1008D000E5C754F84401F5C779012200000080FB08
:1008E0001208D0B9000302093BE479177808B80070
:1008F000028004F709D8FCE479217802B80002806C
:1009000004F709D8FCE4900280780D79118002F098
:10091000A3D8FCD9FA7A8C7B129008B6781B79019F
:100920008015E493A3AD82AE838A828B83F0A3AA61
:1009300082AB838D828E83D8E9D9E77582A27583D5
:100940007C74001209637582DB75830874001209D8
:100950006375D00075813F751580751602759F000F
:100960000208E0C09FF59FE473D09F22D083D0821D
:10097000C09FE493C0E0740193C0E0740293F59FBC
:1009800022E066701008A3E066700A08A3E06670B3
:100990000408A3E06622C3E7960809E7960809E77A
:1009A000960809E79622C3E09608A3E09608A3E01C
:1009B0009608A3E09622C008C3E096F50808A3E0D5
:1009C00096420808A3E096420808A3E096450870FE
:1009D00001D3D00822080808EAC0E0EBC0E086F0A6
:1009E000E7A4FA180986F0E7A42AFA180986F0E7BE
:1009F000A42AFA180986F0E7A42AFA1986F0E7A4CF
:100A0000FBE5F02AFA190886F0E7A42BFBE5F03A9B
:100A1000FA190886F0E7A42BFBE5F03AFA18180952
:100A200086F0E7A4C5F02BFBE43AFA1908E7C5F015
:100A3000C6A426F6E5F03BFBE43AFA1886F0E7A4F4
:100A4000F6E5F00826F6E43B08F6E43A08F6D0E0CE
:100A5000FBD0E0FA226016080808C6C313C618C601
:100A600013C618C613C618C613C6D5E0EA22E62771
:100A7000F60809E637F60809E637F60809E637F614
:100A800022E026F608A3E036F608A3E036F608A32F
:100A9000E036F622E026F008A3E036F008A3E036C0
:100AA000F008A3E036F022C3E697F60809E697F6C9
:100AB0000809E697F60809E697F622C3E096F008DB
:100AC000A3E096F008A3E096F008A3E096F022E0F9
:100AD00056F608A3E056F608A3E056F608A3E0563B
:100AE000F622E056F008A3E056F008A3E056F0081E
:100AF000A3E056F022E0F608A3E0F608A3E0F6082B
:100B0000A3E0F622E6F008A3E6F008A3E6F008A3C7
:100B1000E6F022E0FAA3E0FBA3E0FCA3E0FD22E084
:100B2000F8A3E0F9A3E0FAA3E0FB22E8F0A3E9F0E0
:100B3000A3EAF0A3EBF022CAC0E0E6F0A308DAFAD9
:100B4000D0E0FA22CAC0E0E0A3C582CCC582C5834A
:100B5000CDC583F0A3C582CCC582C583CDC583DA5C
:100B6000E6D0E0CA22B90010BB0008E88AF084F899
:100B7000AAF022E4FBC8FA22EB70227B10C833C82B
:100B8000C933C9335007C39AC3DBF280069A5001B8
:100B90002ADBEAC833F4C8C933F4C9FA2275F0086D
:100BA000E4C833C8C933C933C99AC99B5004C92A98
:100BB000C93BD5F0ECFBC833F4C8E4C9FA22600D98
:100BC00008C6A2E713C618C613C6D5E0F322600C08
:100BD00008C6C313C618C613C6D5E0F42270042293
:100BE000600D18C6C333C608C633C6D5E0F4182254
:100BF000251510AF08F515400C15168008F51540A1
:100C0000021516D2AF2200C0D0251510AF08F51579
:100C1000500C05168008F51550020516D2AFD0D03D
:100C2000222515F58210AF08F515400C1516800821
:100C3000F51540021516D2AF851683222515F582CB
:100C4000E43516F583222515F8E43516F922251525
:100C5000FAE43516FB222515FCE43516FD22E47373
:100C60002515C582C0E0E51634FFC583C0E0E51553
:100C7000C3958224F810AF088583168582158008F5
:100C8000858316858215D2AFCEF0A3E520F0A37838
:100C900008E608F0A3DEFAEFF0A3E58124FAF8E60F
:100CA00008F0A3E608F0A3E608F0A30808E608F0B9
:100CB000A3E608F0A315811581D0E0FED0E0F81579
:100CC0008115811581E8C0E0EEC0E0222515C582BE
:100CD000C0E0E51634FFC583C0E0E515C395822466
:100CE000F910AF08858316858215800885831685DF
:100CF0008215D2AFCEF0A3E520F0A37808E608F085
:100D0000A3DEFAEFF0A3E58124FBF8E608F0A3E602
:100D100008F0A30808E608F0A3E608F0A31581157B
:100D200081D0E0FED0E0F815811581E8C0E0EEC08A
:100D3000E022851683851582E0A3FEE0A3F52078E6
:100D400008E0A3F608DFFAE0A3FFE0A3C0E0E0A319
:100D5000C0E0E0A3C0E0E0A3C0E0E0A3C0E010AFCB
:100D6000088582158583168008858215858316D2AD
:100D7000AFD083D082020969851683851582E0A3EE
:100D8000FEE0A3F5207808E0A3F608DFFAE0A3FF71
:100D9000E0A3C0E0E0A3C0E0E0A3C0E0E0A3C0E0C7
:100DA00010AF088582158583168008858215858396
:100DB00016D2AFD083D08222C0D02515C582C0E024
:100DC000E51634FFC583C0E0E515C3958224F31012
:100DD000AF08858316858215800885831685821560
:100DE000D2AFC8F0A3E9F0A3EAF0A3EBF0A379082F
:100DF000E709F0A3D8FAECF0A3EDF0A3EEF0A3EF2F
:100E0000F0A3D0E0F0A3D0E0F0A3D0E0F0A3E52081
:100E1000F0A3E5F0F0A322851683851582E0C0E0FB
:100E2000A3E0F9A3E0FAA3E0FBA37808E0F608A3A7
:100E3000DFFAE0FCA3E0FDA3E0FEA3E0FFA3E0C037
:100E4000E0A3E0C0E0A3E0F5D0A3E0F520A3E0A399
:100E5000F5F010AF08858316858215800885831606
:100E6000858215D2AFD082D083D0E0F8D0E0327442
:100E7000048006740280027401C0E0F404120C21A4
:100E8000D0E0120B37227404800474028000CCC0BE
:100E9000E0EDC0E0E515C39CCCAD1650011D10AFD0
:100EA000068C158D1680068C158D16D2AF120B444C
:100EB000D0E0FDD0E0FC22FF74F6120CCCEAFEEB91
:100EC000FF8C088D09EE2434F8E43FF9E8FCE9FDD5
:100ED000EE24351211CBFAEE24371211CBF8850827
:100EE000F0A4C885F00A8509F0A4250AF9EA28F8D3
:100EF000E439F97A257B00120B65EA8C828D83F048
:100F0000FA131313541FF8EE28F8E43FF9E8245DB0
:100F1000F582E439F583E0C0E074075AF8D0E0B810
:100F200000028004C313D8FCA2E0EE50082434F57C
:100F300082E43F801824361211CBF5F0EA84A8F041
:100F4000EE28F8E43FF9E82438F582E439F583E047
:100F5000F97F03020D7874F7120CCCEAFEEBFFEE7A
:100F600024341211CBC0E0EE2435F582E43FF58342
:100F7000D0E0F08E828F83A3A3A3A3A3A3A3C082F8
:100F8000C0838E828F83A3A3A3A3A3E0F8A3E0F979
:100F9000D083D082E0C398F508A3E099F509EE2448
:100FA0007F1211CB6401703EEE2480F582E43FF5A0
:100FB00083C082C0838E828F83A3A3A3A3A3E024D4
:100FC0000108A3E03400F9D083D082E0687003A365
:100FD000E06970127CC67D03121A6BEE247FF582E5
:100FE000E43FF583E4F0AC08AD09EEFAEFFB120E36
:100FF000B8E9F91219237F02020D78C082C08385F7
:101000001582851683E0F8A3E0F9C3EA9CEB9D50B6
:1010100010C3EC98ED99401BC3EA98EB99501480EB
:101020000EC3EA98EB994007C3EC98ED9940047918
:101030000180027900D083D08222EAC39CFAEB9D22
:10104000FB2274EF120CCC90028EE064086005E085
:101050006407702A9061C8E060249002B9E0F460EF
:101060001DE0F875F00BA4C8AAF02AF974BB28FE9D
:10107000740239FF8E828F83A3A3A3E07003021151
:1010800050906060E0C0E0EE2468F582E43FF583B4
:10109000D0E0F0750C31750D04750800750900E598
:1010A000D914F50AE5D95403F50E60127403650EE0
:1010B0006043E50A600AEE24671211CB7002807566
:1010C00090042EE06401601F1211C860047A04804D
:1010D000027A00E50AC39AFA95E0FB1219A58A087C
:1010E0008B09EA45097005121C1B80641211C87037
:1010F000048A0C8B0DE50A6012850C82850D83F540
:101100000BE5D9F0A3150BE50B70F61211C860447E
:1011100074FC250AF50A780C120E73AC0AA90EEEBF
:10112000FAEFFB121B077402120C06E97026AA08DC
:10113000AB09121C6F793D8E828F83A3A3A3A3E01A
:10114000FA7B00121975EEFAEFFB121A83121B13C9
:101150007900806F7403650E6051850A1075110067
:101160007810120E73AC0CAD0DAA08AB09121ACB95
:101170007402120C06EE24681211CB6480700474A1
:101180007F8001E0F50C780C120E77E50EF50C78F7
:101190000C120E77A90AAC08AD099002B9E0FA7BEF
:1011A000001219637402120C06801390028EE06420
:1011B00008600BAC0CAD0DEEFAEFFB121B7F121C9E
:1011C0002779017F0A020D78EE2483F582E43FF54A
:1011D00083E02274F2120CCC74FC120BF0EAFEEBEA
:1011E000FF8909A2AFE433F508C2AF02129DE060A7
:1011F0001B780C120E73AC0BA90EEEFAEFFB121B50
:10120000017402120C067404250BF50B7401250BF6
:10121000F5D9850ED9E50B6018F50A850C82850D88
:1012200083E0F5D9A385820C85830D150AE50A7044
:10123000EA75E195EE2463F8E43FF97A007B00A2B9
:10124000AFE433F50BC2AF88828983E0FCA3E0FDF5
:10125000EC4D603A88828983E0FAA3E0FB8A828BB6
:1012600083E0FCA3E0FD88828983ECF0A3EDF08AA3
:10127000828B83E4F0A3F088828983E0FCA3E0FD05
:10128000EC4D700A88828983A3A3E4F0A3F0E50BF8
:10129000A2E092AF121C6F9003CDE004F0EE246345
:1012A0001211CBF8A3E0F9E8496064EE246312114F
:1012B000CB2402F8A3E03400F988828983E58224F4
:1012C00002F50CE43583F50DE0F50BA3E0F50EEE29
:1012D00024621211CB640170369061D0E0F81211D3
:1012E000C860047C0480027C007480C398FA95E096
:1012F000FBE50B2CF8E43400F9E82402F85001096E
:10130000C3EA98EB99A2D265D03340030211EE9064
:1013100003CDE0604D9003CEE0F89003CDE0C3989C
:10132000500C74026509703A9003CFE060348E82ED
:101330008F83A3A3A3A3E08515828516831213725E
:101340007402120C3CE81213729003CCE028F07483
:1013500002120C56AA15AB1679011219999003CDF9
:10136000E4F0E508A2E092AF7404120C067F0702D5
:101370000D78F0A3E4F09003CDE0F822851787857F
:1013800018C622C0E074EB120DB8A2AFE433F50822
:10139000C2AF759B00906182E0A2E05030E591A25F
:1013A000E0502A7591FE740165177021121516120E
:1013B0001BBB121504120E861216CD7404120C06F5
:1013C000E9640170057901121BEB121042906182F1
:1013D000E0A2E5505DE591A2E550577591DF9002DE
:1013E0008EE064076005E06408702F121516740122
:1013F0006517703E121BBB121504120E861216CD15
:101400007404120C06E9640170057901121BEB7972
:1014100001EEFAEFFB1211D38018E0640D70139007
:1014200002AFE004F064287002E4F07A00E0F91200
:101430001C2D906182E0A2E640030214D9E591A23E
:10144000E640030214D97591BF90028EE0640570E6
:1014500008121BA3121BAF8003121BA975170012E1
:101460001BF1E990028FF07900121BEB1219E77A59
:10147000017B0090028DE0F9121C5D907803E0641E
:10148000427056900430E014F0704EC2AF121490C7
:10149000007822D0E0F618D0E0F6E59F5407F87007
:1014A00005750DFF8003750D7FC4C0E07821E6F55A
:1014B0000A08E6550DF50B740B780A120BCED0E036
:1014C000250AF8906270E0A2E740F8E8C333906222
:1014D00072F0906270E0D2E0F0906181E0A2E3509F
:1014E00009E5E9A2E3500375E9F7A3E0A2E7500993
:1014F000E591A2E7500375917FE508A2E092AF7FE6
:1015000008020E178E828F83E0F8A3E0C82416F538
:1015100082E438F583229002B9E0F875F00BA4C894
:10152000AAF02AF974BB28FE740239FF22C0E0C079
:10153000D0C082C083906183E0A2E05009E5BFA2E1
:10154000E0500375BFFEE0A2E15009E5BFA2E15003
:101550000375BFFDE0A2E25009E5BFA2E2500375AA
:10156000BFFBE0A2E35009E5BFA2E3500375BFF75C
:10157000E0A2E45009E5BFA2E4500375BFEFE0A28A
:10158000E55009E5BFA2E5500375BFDFE0A2E650D4
:1015900009E5BFA2E6500375BFBFD083D082D0D08B
:1015A000D0E032C0E074F2120DB8E5A7A2E6500F09
:1015B000E5A1A2E6500953A7BF75A1BF1215F7E533
:1015C000A7A2E5500CE5A1A2E5500653A7DF75A13F
:1015D000DFE5A7A2E15009E5A1A2E1500375A1FD55
:1015E000E5A7A2E2500CE5A1A2E2500653A7FB75C5
:1015F000A1FB7F01020E1774F7120CCC7517019036
:10160000028EE064067015121B378A828B83A3A3B7
:10161000A3A3A3A3E0FAA3E0FB121B91A2AFE433C0
:10162000FED2AF900294E0640170187A207B0090A3
:10163000028DE0F9121CA57A207B0090028DE0F962
:10164000121C63906182E0D2E6F090042FE06021EA
:1016500085C6188016900293E064017008E5C654B0
:10166000F84405F5C653BEFC12137C74016517607F
:10167000E4EEA2E092AF7F02020D78FF8E198F1A7E
:1016800085821E85831D851582851683E0CEA3E0A5
:10169000CF851E82851D83EBC9EAC8EDCBECCA75E8
:1016A000F010C3E833C8E933C9EA33CAEB33CBC31C
:1016B000EA9EF51CEB9FF51BB35004AB1BAA1CEC78
:1016C00033CCED33CDD5F0DAAE19AF1A2274F11266
:1016D0000CCC8A088B098C0A8D0B90803678081206
:1016E0000ACF740F120C3C780C120AF590803678F1
:1016F0000C120ACF7808790C12099690807250105B
:101700007808790C120AA778081209B64014800EDE
:10171000780C7908120AA7780C1209B650047901DE
:10172000800279007F08020D7874ED120CCC8A08D3
:101730008B098C0A8D0B9080367808120ACF7413AF
:10174000120C3C780C120AF5908036780C120ACFF5
:10175000780C790812099640117808790C120AA7BA
:10176000AA08AB09AC0AAD0B8022751000751100F8
:101770007512007513017810790C120AA778107988
:1017800008120A6EAA10AB11AC12AD137F0C020D39
:10179000789080367808120AF58A828B837808124E
:1017A0000AE27F04020D7874F5120CCC8C828D83D2
:1017B0007808120AF58A828B837808120ABB1217FE
:1017C000FFC3E09CF0A3E09D1217F14022908086B9
:1017D0007808120AF58A828B837808120A948A8222
:1017E0008B83A3A3A3A3E02420F0A3E0344EF080D6
:1017F000A0F088828983C3E09420A3E0944E22EA7B
:101800002404F8E43BF98C828D83A3A3A3A3E0FC1A
:10181000A3E0FD888289832274F5120CCCE9FE9046
:1018200003E7E0FAA3E0FBEE29F8E433F97420289B
:10183000F582748039F583E02AF508A3E03BF509C9
:101840007808120E73908082120B1312167C7402A9
:10185000120C068A088B098C0A8D0B7410780812FA
:101860000A55AA08AB097F04020D7874F1120CCC5A
:101870008A0C8B0D8C0E8D0F7411120C3C120E8A7B
:101880007411120C3CE02401F508A3E03400F509C2
:10189000E4F50AF50B780C79081209D590807E786A
:1018A00008120AF5780C79081209D5AA0CAB0DAC10
:1018B0000EAD0F12167C7402120C068B09EA450954
:1018C00060047A0180027A00EC2AFCE43DFD741386
:1018D000120C3CE0F8A3E0F9E8FEE9FFECF8EDF9C2
:1018E0007A717B02120B6588088909E4F50AF50B09
:1018F0008E828F837808120B04ECF8EDF97A717BF5
:1019000002120B658A088B0974057808120BDD8EAC
:10191000828F83A3A3A3A3E508F0A3E509F07F08C2
:10192000020D78C082C083E9906000F0D083D0823D
:1019300022C0E0C0D0E8C0E0A8A8D2AFC2C7E8A2E9
:10194000E792AFD0E0F8D0D0D0E03212096CEF7A55
:101950000012096C327B0012096C5C7B0012096C6E
:10196000817B0012096CDF770012096C3F61001265
:10197000096C41620012096CE2630012096C946404
:101980000012096C9A650012096C0D670012096C4F
:1019900066670012096C0F680012096C93680012E8
:1019A000096C6A6B0012096CA97B0012096CD47B6C
:1019B0000012096CFC7B0012096C194E0012096CB4
:1019C000924E0012096C4C540012096C57550012CB
:1019D000096C00570012096C8E570012096CDE2E3C
:1019E0000012096C5F2F0012096C922F0012096C13
:1019F00093300012096CEC300012096C6E31001249
:101A0000096CDF310012096C9C320012096C5F33E3
:101A10000012096CED330012096CA4340012096C39
:101A2000B7340012096C50350012096CE73500120A
:101A3000096C0E360012096C77360012096CC1363B
:101A40000012096C07370012096CAC370012096CE0
:101A50004A380012096CD7380012096C4839001254
:101A6000096C8F390012096CE7390012096C193AB8
:101A70000012096CD33A0012096CDA3B0012096CAF
:101A8000233C0012096C543C0012096C0B3D0012FF
:101A9000096C303D0012096CA03D0012096CE13D5B
:101AA0000012096C503F0012096CB8570012096C03
:101AB00003580012096C0F580012096CE358001209
:101AC000096CFA580012096C36590012096C6759F2
:101AD0000012096CBD590012096CD3590012096C2F
:101AE0000F5A0012096C225A0012096C495A00124E
:101AF000096C7D5A0012096CA35B0012096CED5C45
:101B00000012096CE95D0012096C065F0012096C95
:101B1000A97C0012096C863F0012096CD8420012A1
:101B2000096C34440012096CF3440012096C5A48E1
:101B30000012096C44490012096C90490012096CAA
:101B4000AA490012096CE7490012096C264A0012E2
:101B5000096CD04A0012096CA74B0012096CFB4BB0
:101B60000012096C584C0012096CCA4C0012096C26
:101B7000BC1C0012096C1B200012096C21200012F1
:101B8000096C52270012096C592B0012096CC46FA2
:101B90000012096C08700012096C42700012096C86
:101BA000DA700012096C49710012096C527100124E
:101BB000096C5E710012096C78710012096CA271D7
:101BC0000012096CD2710012096C37740012096C92
:101BD00051740012096C8F740012096CF4740012B5
:101BE000096C09750012096C14750012096C2175D5
:101BF0000012096C38750012096C43750012096CEB
:101C00004F750012096C5E750012096C7375001235
:101C1000096C91750012096CF2750012096CF87567
:101C20000012096CFE750012096C04760012096C32
:101C300012760012096C00720012096C40720012D8
:101C4000096C85720012096CAE720012096CC372C5
:101C50000012096C33730012096C7F730012096C57
:101C6000B7730012096CF2730012096CE979001263
:101C7000096C3A7A0012096CF3780012096C4C7600
:101C80000012096CA5770012096C4E7C0012096CD9
:101C9000246C0012096CC86C0012096C076D0012EC
:101CA000096C246D0012096C556D0012096C886D69
:101CB00000FFFFFFFFFFFFFFFFFFFFFF74F4120CA9
:101CC00060907803E064427056900430E014F07045
:101CD0004EC2AF121CD6007822D0E0F618D0E0F643
:101CE000E59F5407F870057509FF800375097FC4E7
:101CF000C0E07821E6F50808E65509F509740B7887
:101D000008120BCED0E02508F8906270E0A2E74000
:101D1000F8E8C333906272F0906270E0D2E0F09025
:101D200002B9E0F47003021FB71226ECEE2402F5AC
:101D300082EF3401122013601CEE2402F582EF348E
:101D400001F58312265AEE2401F582EF3401F58362
:101D5000E0F9121C5D8E828F83A3A3A3A3A3A3A388
:101D6000121FF7122623906054E0900295F09060C5
:101D700055E0900296F0906056E0900297F09060E7
:101D800057E0900298F0906058E0900299F09060CF
:101D900059E090029AF090605AE090029BF09060B7
:101DA0005BE090029CF090605CE0FA90029DF09005
:101DB000605DE0FC90029EF090605EE0FD90029F0E
:101DC000F090605FE0FB9002A0F090029BE02AF5AB
:101DD00008E43400F509E5082DF508E43509F509AE
:101DE000E5082CFCE43509FDEC2BFCE43DFDEE247C
:101DF000F7122ACB2CF0A3E03DF0EE24F9122ACB07
:101E00002AF0A3E03400F0EE24FB122004603B1221
:101E10001FE9F582E9121FBC3DF0906000E0FA90E6
:101E2000029DE0FCEA2AFAE433FBE82AFAE93BFBEC
:101E3000EA244AF582E4121FBC3400F0121FE9F8CC
:101E4000E93BF9E82494121FD6F090029BE0700E53
:101E500090029EE07008A3E07004A3E060568E82BA
:101E60008F83A3A3A3A3A3122737121FC570031246
:101E70002EA9900296E0601FEE241C122E16122E40
:101E80004DE07013EE2473122ACB700BEE247F12F8
:101E90002ACB7003122EA9EE2482122ACB700302E1
:101EA0001F326402707A90029EE07074EE248212F7
:101EB0002AB4807D1225FEF090029DE0600A121F78
:101EC000C570241226B7801EEE24FD122004601770
:101ED000906000E0F825E0F8E433F9EE24FF1226E4
:101EE0003924DE121FD6F01225F0121FF7E06870B9
:101EF00003A3E0696003021E72122AC860128E8278
:101F00008F83A3A3A3A3A3E064057002A3E06004EE
:101F100079088002793EEEFAEFFB121A89021FB7A8
:101F200090029EE0700CEE2482F582E43FF583740B
:101F300002F0906062E060248E828F83122EB7E8F8
:101F40002406FCE439FDE82402FAE439FB121BB54F
:101F50008E828F831226A9E4F0A380061225FE123A
:101F60002629F0906060E0C0E0EE2468F582E43F4E
:101F7000F583D0E0F09061C8E06006121042E9708D
:101F8000F48E828F83A3A3A3E0602C9061C8E070DD
:101F9000069060607480F0EEFAEFFB121B85E96436
:101FA0000160147902EEFAEFFB1211D3121B79E9EA
:101FB00064016003121B137F04020D323BF583E0C2
:101FC0002CF0A3E022EE240FF582E43FF583E41227
:101FD000262EE0640122F582E439121FDE22F58309
:101FE000E02401F0A3E0340022906000E0FA25E054
:101FF000FAE433FBE82A22122EBB8E828F83A3A33E
:10200000A3A3A322F582E43F121FDEF0EE24FFF526
:1020100082E43FF583122EBBE8492253BFEF020949
:102020006974F0120C609002B91226EC9061D0E055
:102030007008EE246312200F60051225FE8023EE47
:102040002469122ACB701CEE2473122ACB7014EE72
:10205000247F122ACB700CEE241C122AEF7004127B
:1020600026B7F08E828F83A3A3A3A3A312265224A4
:102070001D122639240108500109EE2407F508E451
:102080003FF5098508821226211225F0C3E098A3A6
:10209000E09950208E828F83A3A3A3A3A3A3A3C000
:1020A00082C0831225F0122EB7D083D082122ED593
:1020B000501B80211225F0C082C0838E828F83A3A3
:1020C000A3122EB2D083D082122EC150089003D01A
:1020D000E064017003122712EE2473122AEF70538A
:1020E0001225DA120E8A1226CD120FFB7402120C80
:1020F00006E9603F8E828F83A3A3A3A3A3A3A3C0FB
:1021000082C08312268BD083D082E0687003A3E064
:102110006970030221C1EE2474122ACB687003A3F4
:10212000E06970030221C1EE2474F50AE43F850AD8
:10213000828059EE247F122AEF60030221C1EE242F
:1021400080F582E43FF583120E8A1226CD120FFB32
:102150007402120C06E960698E828F83A3A3A3A385
:10216000A3A3A3C082C08312268BD083D082E06851
:102170007003A3E069604AEE2480122ACB687003E2
:10218000A3E069603CEE2480F582E43FF583E0241F
:10219000FFFAA3E034FFFB850882850983EAF0A3F8
:1021A000EBF08E828F83A3A3A3A3A3E0FCA3E0FDA7
:1021B00012103AEA24FFF8EB34FFF9EE241D122640
:1021C0001DEE2482122ACB6003122712EE24731212
:1021D0002AEF60030223281225DAC082C083122668
:1021E0008BD083D082E0687003A3E0696003022390
:1021F00028EE2474F50AE43FF50B850A82F5831274
:102200002EB7850882850983122623EE2476FCE406
:102210003FFDEEFAEFFB121A8FEE247B12264C24C0
:1022200020F582E43FF583E8F0A3E9122629122B7A
:1022300005240F122AD78508828509831227378E35
:10224000828F83A3A3A3A3A3E0FCA3E0FD850A825E
:10225000850B8312265A12103A8A088B091225D050
:1022600012265AE4F50AF50B8A0C8B0DF50EF50FC4
:102270007808790C1209D5EE24771226137808799C
:102280000C120A6EEE2479122ACB6A7003A3E06B5B
:10229000701812267CE0687003A3E069700C1226A7
:1022A00060E0687003A3E0696043EE247DF582E49A
:1022B0003FF583122B1A120BCE780C120E73EE24FC
:1022C0007BF582E43FF583120E8AEE2479122ACB45
:1022D000FCA3E0C313FDEC13FC8E828F83A3A3A3A6
:1022E000A3E0FA7B001219937404120C06EE247614
:1022F000122ACBC0E0EE242BF582E43FF583D0E038
:10230000F0EE247912264C242E12261D122660127D
:10231000262312267C122623EEFAEFFB121A95EEE4
:102320002473122AB4F080031227001225E4120944
:10233000817014EE241F122ACBF8EE241D122ACB32
:10234000687002A3E06030EE2412F50CE43FF50D56
:10235000780C120E73EE2410F582E43FF583120E12
:102360008A122605120E8AAA08AB09AC0AAD0B1216
:10237000186B7406120C061225E4120B04EE241DD1
:10238000122ACBC0E0EE241FF582E43FF583D0E0B3
:10239000F0EE2412FCE43FFD12263E1217A79060D7
:1023A00062E0600A7C307D8012263E1217A78E8282
:1023B0008F83122EB788828983A3A3E82408FCE4C4
:1023C00039FD7406120B448E828F83E02402F8A339
:1023D000E03400F9E8FAE9FBEE241D122613E4F5D7
:1023E0000EF50F90807A780C120A81780C79081219
:1023F00009D58A828B83780C120A94908036780CE7
:10240000120AF58A828B83780C120AE29003CBE0E1
:102410006401600302254F7901121BEB12265675E9
:1024200008FF7509FF750AFF750BFFEA240EF58298
:10243000E43BF5837808120B04EA2412F8E43BF934
:10244000E8FAE9FBEE2412F582E43FF583780812FE
:102450000AF5E50875F0E2A4C508A8F075F004A433
:1024600028F875F0E2E509A428F5098A828B83E053
:102470002508F0A3E03509F0EE2416122ACBF50862
:10248000A3E0F50974047808120BCEE5082401F8DE
:10249000E43509F98A828B83E028F0A3E039F090D3
:1024A0006062E08E828F8370030225A81226A2F05C
:1024B000A3E03401F0122AC8602CEE242B122ACBA0
:1024C000F875F071A4C8AAF075F002A42AF98E82FA
:1024D0008F83E0FAA3E0CA2412F582E43AF583E0A0
:1024E00028F0A3E039F01226568A828B83A3A3C07A
:1024F00082C083122700D083D0827808120A81908C
:10250000803A7808120A819080367808120ACFEA59
:102510002416F582E43BF5837808120B04EA2414B0
:10252000F582E43BF5837410F08E828F83E0F8A38C
:10253000E0C8241AF582E438F583741DF0A3741AF8
:10254000F0EEFAEFFB120F5679007F08020D329081
:10255000806E78081209B6500302241CEE241D1266
:10256000200F600302241C7808120E6FEEFAEFFBB6
:10257000121A9B7404120C06E96401600302241C05
:10258000122AC860128E828F83A3A3A3A3A3E06440
:10259000057002A3E0600479088002793EEEFAEF4C
:1025A000FB121A89790180A21226A2F8A3E034FF57
:1025B000F97A717B02120B65880889091225D012FD
:1025C0002EB7C3E50898E5099950030224B580C7E2
:1025D000EE242EF582E43FF58322EE2474F582E4A6
:1025E0003FF58322EE2418F582E43FF58378082234
:1025F0001225F422EE240BF582E43FF58322122605
:1026000005E4F0A32212260922EE241DF582E43F00
:10261000F58322122ACFF50CA3E0F50D22F582E412
:102620003FF583E8F0A3E9F02212262EE422F0EE33
:10263000241CF582E43FF58322122748E8228E828B
:102640008F83E02402FAA3E03400FB22F582E43F0A
:10265000F583122675228E828F83E0FAA3E0FB2297
:10266000EE247B12266F2430F582E43FF58322F5B9
:1026700082E43FF583E0F8A3E0F9EE22EE247D1238
:10268000266F2432F582E43FF5832212268F228EB4
:10269000828F83A3A3A3A3A3E02401F8A3E03400C3
:1026A000F9221226A9E0241022E0F8A3E0C824129F
:1026B000F582E438F583221226BB22EE2420122A6A
:1026C000CFF8A3E0F9122609E8F0A3E9228E828F61
:1026D00083A3A3A3A3A3A3A3E0FCA3E0FD8E828F07
:1026E00083A3A3A3A3A3E0FAA3E0FB22E0F875F081
:1026F0000BA4C8AAF02AF974BB28FE740239FF2281
:10270000EE242E122ACFF508A3E0F509E4F50AF528
:102710000B2212272912268F8E828F83A3A3A3A3B5
:10272000A3A3A3E8F0A3E9F022EE241DF582E43F81
:10273000F583E4F0A3F022122675240D1227481227
:1027400025F4E8F0A3E9F022122ACF28F8A3E03913
:10275000F92274EC120C60EAFEEBFF8C828D83E0B0
:10276000F8A3858208858309603B1470030228BAA8
:10277000147003022A7F14700302290124FD7003E0
:102780000229C1147003022AAD1470030229E8243F
:10279000FE70030229C61470030229DF14700302BD
:1027A0002A2D022A9DEE2476F510E43FF511E085EE
:1027B0001082851183122B0BEE2477F50EE43FF582
:1027C0000F7902AC08AD09AA0EFB121AA18A088B78
:1027D00009EE2479F50CE43FF50D7902AC08AD095A
:1027E000AA0CFB121AA18A088B097902AC08AD0960
:1027F000EE247BFAE43FFB121AA18A088B09EE242F
:102800007D122ADC121AA18A088B09851082851193
:1028100083E0C333F0850E82850F83122B2F850E44
:1028200082850F83122623850C82850D83122B2F20
:10283000850C82850D83122623850A82850B8312DF
:102840002B1A120BDD850A82850B83E50CF0A3E5BC
:102850000DF0EE2474122ADC121AA1850A82850B6F
:1028600083C082C083122EAED083D082122B26501A
:1028700079EE247D122703EE247B122ACB2401F566
:102880000CA3E03400F50DE4F50EF50FEE2479F518
:1028900082E43FF583122B2F88108911E4F512F59D
:1028A00013780C79101209D57808790C1209964022
:1028B00004793B8037EE2473803C7905AC08AD0980
:1028C0007AC67B03121AA18A088B09EE2480122A89
:1028D000DC121AA1850A82850B83C082C083122E66
:1028E000AED083D082122B2640097928EEFAEFFB76
:1028F000022A98EE247F122E16122B05248202291A
:10290000E2EE24E2122ACB700D122ABC122B39708F
:1029100003EB640270F6EE24E3122ACBA2E0EE4051
:102920001024DEF582E43FF583741AF0790D022A53
:1029300079122AF524E1122AD77908AC08AD09EEFC
:10294000249CFAE43FFB121AA18A088B097902AC95
:1029500008AD09EE24A4FAE43FFB121AA18A088B01
:1029600009EE2494F50AE43FF50B7908AC08AD09AB
:10297000AA0AFB121AA18A088B097908AA0AAB0BCA
:10298000121AA7EE2488F50AE43FF50B7904AC0887
:10299000AD09AA0AFB121AA17904AA0AAB0B121AF2
:1029A000A7EE248CFAE43FFB121AB9EE2484FAE471
:1029B0003FFB121ABF900290E04480F07904022A93
:1029C00079EE24DF801CEE122AF524D3122E432444
:1029D000DD122E3B24D4122AB4F0790B022AAAEE7F
:1029E00024E0122AD7022AAD122ABC122B39700316
:1029F000EB640270F6122ABC8A828B83E0FC8508A5
:102A000082850983E05C88828983122B0B8A828B02
:102A100083A3AA82AB8388828983A3A882A983EA3D
:102A200064AA7003EB640270CF7909804CEE24EB4A
:102A3000122AEF6068850882850983E0C0E0122EC3
:102A40009FD0E0122B0B7902AC08AD09EE24EFFA0F
:102A5000E43FFB121AA18A088B097902AC08AD0980
:102A6000EE24F1FAE43FFB121AA1EE24EB122E3B06
:102A700024ED122ACB7036790CEEFAEFFB802BEEA8
:102A800024F5F8E43FF9E088828983F0EE24F4121B
:102A90002AD788828983E0F9121A898010EE24F6F9
:102AA000F582E43FF583E8F07907121A597F0C02AA
:102AB0000D3224DFF582E43FF583E422EE24E3F8CF
:102AC000E43FF97AA27B0222EE240F122ACF22F5EC
:102AD00082E43FF583E022122E16F022F50AE43F4D
:102AE000F50B7902AC08AD09AA0AFB22EE246912A3
:102AF0002ACF6401222462F582E43FF583E4122E9A
:102B000069E4F0EE22F0122729EE22F08508828592
:102B10000983A385820885830922E0F50CA3E0F5EB
:102B20000D7404780C22122ECA94FFE9947F2212AD
:102B30002EBBE828F8E933F9228A828B83E0888269
:102B40008983F08A828B83A3AA82AB83888289835C
:102B5000A3A882A983EA64AA2274F6120C60EAFE92
:102B6000EBFF022CC5EEFAEFFB121A4D022DF91203
:102B70002AEC703C900298E07003022D54EEFAEFBC
:102B8000FB121A5FEE24A4F508E43FF50978081259
:102B90000E73EE249CFCE43FFD8E828F83A3A3A3DF
:102BA000A3E0FA7B001219817402120C06022CC5F4
:102BB000EEFAEFFB121A23022DF9122AEC702E9076
:102BC0000298E06011EE2483122E3B24D5122E339E
:102BD000EE24D9122E33EE24DF122AEF6003022DE9
:102BE000547906EEFAEFFB121A65022CC5EE24D3D7
:102BF000122AEF701BEEFAEFFB121A29E96401604A
:102C000003022E0FEE122AB2122E4D7401022DFD78
:102C1000EE24D4122ACB7003022E0FEE24B3F50853
:102C2000E43FF5097808120E73EE248CFCE43FFDB6
:102C3000EE24C3FAE43FFB121AC57402120C06EE2E
:102C400024D3122E16805A122AEC7058900298E063
:102C50007003022D54122EA9EEFAEFFB121A5F1226
:102C60002E5CEE24DD122AEF701379008E828F83A2
:102C7000A3A3A3A3E0FA7B0012198D80137C017932
:102C8000008E828F83A3A3A3A3E0FA7B001219878F
:102C9000EE24DD122E4324E1122E43122E41122A7D
:102CA000B2F08021EEFAEFFB121A2F022DF9122A50
:102CB000EC7066EE24E0122AEF6003022D54EEFA67
:102CC000EFFB121A5FEE246E122ACB7003022E0F56
:102CD000EE246A122ACB24FE602C24FE7003022B01
:102CE0006F147003022BBA147003022C4714700384
:102CF000022E0024FE607424FE60B3147003022DC3
:102D00008B14603280BF122AEC6003022B659002A4
:102D100097E060407916022DE2EEFAEFFB121A35C9
:102D2000E964016003022E0FEE122E412483122E5D
:102D3000432469022C42122AEC7026900298E0602B
:102D40000AEE2483122AB4F0122E5C900297E060FF
:102D500003022CBE122E741220156003022E0F8067
:102D60007FEEFAEFFB121A3B022DF9122AEC7012D9
:102D7000900298E060DEEE24E2122AD7122EA90219
:102D80002CBEEEFAEFFB121A41806E122AEC705D37
:102D9000EE24EB122AEF7027EE24EC122AEF6003E8
:102DA000022CBE122E1F120E8A122E29120E8A1209
:102DB0002E8D790012197B7404120C06022CBE129F
:102DC0002E741220157048122E1F120E8A122E29F0
:102DD000120E8A122E8D792212197B7404120C069F
:102DE0007922EEFAEFFB121A8979018024EE24EDA4
:102DF000122E3BFAEFFB121A47122E52E9F0800F07
:102E0000EEFAEFFB121A53E964017003022CBE794B
:102E1000007F02020D32F582E43FF583740122EE59
:102E200024F1F582E43FF58322EE24EFF582E43FBE
:102E3000F5832212272CA3F0A3F022122E16F0EE17
:102E40002224E0F582E43FF583E4F0EE22F0122E36
:102E50005222EE2469F582E43FF58322EE246212C9
:102E60002E16122E697401F022F0EE2467F582E42A
:102E70003FF58322EE2471F8E43FF988828983E0EC
:102E800024FFF0A3E034FFF08882898322122E9F72
:102E9000E0FC8E828F83A3A3A3A3E0FA7B0022EE43
:102EA00024EEF582E43FF583221226BBF0228E82C7
:102EB0008F83A3A3A3A3A3122EBB22E0F8A3E0F960
:102EC00022122ECA94ABE9941022E0C398F8A3E032
:102ED00099F9C3E822122ECA94AAE9941022C0825A
:102EE000C0839061907404F0A37448F0A37402F05E
:102EF0009061807440F09061BC7403F090618774BD
:102F000019F0906265741BF0906249E0C3941390CD
:102F1000619C40107409F09060667401F090619FAC
:102F20007428800D740BF0906066E4F090619F74DB
:102F30002CF01230867009C291900292746780055D
:102F40009002927461F01230D7901CB8E493F46050
:102F500006E493F91219E17905121C0F0230E5C05D
:102F600082C083E9540FF9906185E0696012E5C67B
:102F700054B84441F5C6E59E5447644170F8E9F001
:102F800053C6B8E59E544770FA0230E5F0A3F0024C
:102F900030E5C082C08374F8120BF0900290123FAB
:102FA0003E700302307E900290E054406017790832
:102FB000AA15AB16121AB3AA15AB1612194B90022A
:102FC00090E054BFF0E054806010790C7A517B049B
:102FD000121AB3900290E0547FF0E0A2E0501E126B
:102FE00030867009C29190029274678005900292B7
:102FF0007461F0121951900290E054FEF0E0540216
:10300000601E1230CA7009D29190029274718005CC
:10301000900292746AF0121951900290E054FDF0FF
:10302000E054046010901CB41230DA121957900268
:1030300090E054FBF0E054086010901CB51230DAB8
:10304000121957900290E054F7F0E05410600D12FE
:1030500030D7121957900290E054EFF0E0542060FE
:103060000A121957900290E054DFF0A3E054016077
:103070000D1219F312195D900291E054FEF07408DC
:10308000120C060230E590619A12315B90042DE03B
:10309000640122C082C083E9600514601780291290
:1030A00030867009C2919002927467801A900292E1
:1030B000746180131230CA7009D2919002927471B7
:1030C0008005900292746AF0801B90619A12314DD3
:1030D00090042DE0640122901CB6E493906186F088
:1030E00022A2E092AFD083D082020969C082C0835D
:1030F0009061AE7468F0A3746AF090624574FBF05E
:10310000A304F053F4FD43FE0290042D7401F090EB
:1031100061A0E0643A90619A701912315B740164A5
:10312000017009C2919002927467801E900292749D
:1031300061801712314D740164017009D2919002BF
:103140009274718005900292746A022F8E743FF01F
:10315000A3745AF09061A0747FF0227433F0A374CA
:1031600055F09061A0743AF0227F04020D32C082C3
:10317000C08375E1F19003E4E060511460091460CC
:103180005514604D1470541219FF9003D3E0F97A6E
:10319000D47B03121BCD908042120B13121BFD90A7
:1031A0008052120B13121BD99003E5E0F9121BE5B4
:1031B0007901121C0912328D241AF582E438F58344
:1031C0007417F0A3741AF079000230E5121A058022
:1031D000B9121A0B80B4121A1180AF791280EA74F6
:1031E000F4120C6075D90D9003DAE0A2E0E4331319
:1031F00013F81233C5484401F5D97582D475830399
:103200001233CF7004E583640370F57582DB758338
:103210000312350EE58264E17004E583640370F106
:1032200075E1959003DAE0F97ADB7B03121BD3900A
:10323000128C74B7F0A3741912330412334E123384
:10324000451234889003E4E064019003D1700B12BE
:103250003296120AF59080468009123296120AF5CB
:1032600090804A7808120A819080367808120ACF36
:1032700012328D12333C7808120B0412328D123345
:10328000337413F090028E7402F00231699003D10E
:10329000E0F8A3E0C822123EE378082274F7120C8B
:1032A000601233B5F5D97582D47583031233CF70AC
:1032B00004E583640370F59003EAE0600A78EB7933
:1032C00003FA1233A9DAFB1234561233CF7004E535
:1032D00083640370F590040AE0600A780B7904FABD
:1032E0001233A9DAFB75E19590128C74C3F0A374C4
:1032F0001912330412330E7412F090028E7401F01E
:10330000FF020D3212347174BDF0A374192212330E
:103310004E12334512348C9003D1E0F8A3E0C8126A
:10332000333C74FF123BB59003D1E0F8A3E0C81220
:103330003333222414F582E438F58322240EF582F7
:10334000E438F58322F0A374D5F0A3741922123364
:10335000522212335622F0A3740DF0A3741B227470
:10336000F7120C601233B54402F5D97582D4758317
:10337000031233CF7004E583640370F59003EAE031
:10338000600A78EB7903FA1233A9DAFB75E19590BC
:10339000128C1233D7F0A31233D71233117414F0F6
:1033A00090028E7404F002370288828983123512EB
:1033B000A882A983229003EA1233BC22E02407F5F5
:1033C000D91233C5229003D3E0C4333354C0221240
:1033D0003512E58264DA2274CF1233E41233E4F05A
:1033E000A3741922F0A37419F0A374CF2274F712F6
:1033F0000C601233B54406F5D97582D47583031277
:1034000033CF7004E583640370F59003EAE0600A4B
:1034100078EB7903FA1233A9DAFB1234561233CF60
:103420007004E583640370F590040AE0600A780B89
:103430007904FA1233A9DAFB75E19590128C74C9FC
:10344000F0A3741912346712330E7415F090028EC3
:103450007403F002370290040A1233BC4404F5D915
:103460007582D475830322123471740DF0A3741B1A
:103470002212347522123482740DF0A3741B12349C
:103480008222123356F0A32212348C22F090129A28
:10349000740DF0A3741B123475740DF0A3741B1219
:1034A0003352F022C082C08312328D2406F582E4AA
:1034B00038F583E4022F8C74F7120C609002B91275
:1034C0003C4274BB28F8740239F9E82405FAE4395F
:1034D000FB8A828B83123D0588828983A3A3A3A3E1
:1034E000A3A3A3A3A3ECF0A3ED123507A3A3A3A367
:1034F000A3A3E024FFF8A3E034FFF98A828B83E8DA
:10350000F0A3E9F0023702F088828983A322123502
:103510001222E0F5D9A3229061D0E0F87480C3981C
:10352000FC12352A22F012352A22EA2483F582E49D
:103530003BF583E0221235402404F8E43583F92278
:10354000F582E43FF583E58222123512E865822296
:1035500074F7120C60EAFEEBFF9061D0E0707875B2
:10356000D90E75D90375D904EE248C1235DC1235C9
:10357000497003E9658370F6EE24841235351235FF
:10358000497003E9658370F675E1957908EE248C3E
:10359000FAE43FFB121AA77904EE2484FAE43FFB15
:1035A000121AA77C00EE24ABF8E43FF9ECFAC3E46E
:1035B0009AFA95E0FBEE2AFAEF3BFBEA248B123EE7
:1035C000FD88828983F00CA3A882A983ECC39408A8
:1035D00040DA1236EB8002790002370212354024BD
:1035E00008F8E43583F922C082C08375D90275D901
:1035F0000375D90575E195EA246FF582E43B123C29
:103600004EEA2471F582E43B1236F80230E574F696
:10361000120C60EAFEEBFF900431740612366D1254
:103620000E737C017903121B017402120C0675D90A
:103630000675D9037582317583041236657004E509
:1036400083640470F575E19590028EE06408701053
:10365000EE246FF582E43F123C4EEE2471123D7170
:10366000790102382B123512E582643622F0750892
:103670003175090478082274F6120C60EAFEEBFF3B
:103680009061D0E070367801900431740BF09002B4
:103690008EE0640770197508317509047808120EF8
:1036A000737C017903121B017402120C0678051257
:1036B000393312350EDAFB1236E88002790002380F
:1036C0002B74F7120C60EAFEEBFF75D90375D90372
:1036D00075D90DEE24DE123ED7F5D975E195790442
:1036E000121C031236EB801A75E195EE246F123F1F
:1036F00044EE2471F582E43FF583E8F0A3E9F07924
:1037000001227F01020D3274F6120C60123838600B
:1037100004780480027800E8240BF8EAC398404556
:103720007C09900431EC12377F12378EDDFB123E9C
:10373000D4601B7508317509047808120E7379037B
:10374000EEFAEFFB121B017402120C067C0D12370D
:103750006A12383070FB75E1957904121C03123837
:10376000B379018002790002382B1237708C08225D
:1037700074012CF5D975D90375823175830422F053
:10378000EE24E3F8E43FF97A327B047D0822123715
:10379000922288828983E08A828B83123507A882ED
:1037A000A9838A828B83A3AA82AB832274F6120C2C
:1037B000601238386004780480027800E82408F841
:1037C000EAC39840647806900431740CF09002AA21
:1037D000E0900432F09002ABE0900433F09002AC41
:1037E000E0900434F09002ADE0900435F09002AE29
:1037F000E09004361238C7601B75083175090478EB
:1038000008120E737C067903EEFA121B0174021281
:103810000C06780A1238C112383070FB75E19579C0
:1038200004121C031236EB800279007F02020D3273
:103830001235121508E50822EAFEEBFF9061D0E090
:10384000F87480C398FA1238CC2274F6120C601205
:1038500038386004780480027800E82404F8EAC369
:1038600098404B7802900431E8F0EE24F5123ED7F0
:103870009004321238C7601B750831750904780846
:10388000120E737C027903EEFA121B017402120C01
:103890000678061238C112383070FB75E19512387F
:1038A000B37904121C03EE240D1236EE8002790067
:1038B00002382BEE241DF582E43FF583E4F0A3F0FB
:1038C00022123939880822F01238CC22EE2483F5EE
:1038D00082E43FF583E02274F6120C601235176023
:1038E00004780480027800E82404F8ECC398403E91
:1038F00078029004317407F0EA24F6123EFD900439
:103900003212352560197508317509047808120ED0
:10391000737C027903121B017402120C06780612E2
:10392000393312350EDAFB75E195790180027900A1
:1039300002382B123939E8FA22740128F5D975D9E1
:10394000037582317583042274F7120C60E9FFA2BB
:10395000AFE433FEC2AF7C0080010C1239DF50119E
:10396000ECF8EA28F8E43BF91239D5E06F70EB8007
:1039700016EA246EF8E43BF9E0FCEA2CFAE43BFB9F
:10398000123A02EF123AC6EEA2E092AF023702C03C
:1039900082C083A2AFE433FDC2AF123EFA14F07CC2
:1039A00000801BECF8EA28F8E43BF9E8246BF58288
:1039B000E439F583E0C0E01239D5D0E0F00C1239DB
:1039C000DF40E0EA246DF582E43BF58374FF123AB0
:1039D0000CED0230E1E8246AF582E439F583221225
:1039E0003EFAF8ECC39822C082C083A8A8C2AF12E6
:1039F0003A02E9123A0CE8A2E7E433FAE8A2E70255
:103A000030E3EA246AF582E43BF58322F0EA246994
:103A1000F582E43BF583E4F02274F3120C60EAFED5
:103A2000EBFFECFAEDFB8A828B83A3A3A3A3E05404
:103A30001FF0EE2436F582E43FF583E4F0750A00CA
:103A4000EE245DFCE43FFD8A828B83E08C828D83D3
:103A5000F0750B00E50A33333354F8F50C8A828B8A
:103A600083E0F508750900E50B7808120BBEE50840
:103A7000A2E05027EE2436F8E43FF988828983E0FB
:103A8000F508EE2508F508E43FF509E5082438F5C2
:103A900082E43509F583E50C123AC6050B050CE501
:103AA0000BC3940840B7050A8A828B83A3AA82AB12
:103AB000838C828D83A3AC82AD83E50AC3940540D9
:103AC000867F05020D32123ACC04F022F0888289FA
:103AD00083E02274F7120C609002B7E06401700377
:103AE000023BAD9002BDE06003023BAD7401F0A368
:103AF000E4F0A3F090031D04F0900322F09002C0C4
:103B0000123BB49002CA04F09002F0E4F09002D3A9
:103B1000123BBBA3F090033AF090032EF090033DCC
:103B2000F09003237480F0A3E4F0900329F0900355
:103B3000A6123BD29003AFF090033EF090038E129A
:103B40003BD2A3F0A3F090039AF090039CF0900373
:103B500098F09003B2123BD29003C5F09003BF12CD
:103B60003BBB74FF9003257804F0A3D8FC7A187B44
:103B70000378C67903123BCD64CB7003E96403700C
:103B8000F47A9E7B0378A27902123BCD64AA70037B
:103B9000E9640270F49002B7E004F06401700890E8
:103BA00002BFE09002B9F07ABB7B0280047A007B0E
:103BB00000023702E4123BC7A3F022123BBF2212DD
:103BC0003BC7A3123BC722F0A3F0A3F02212379207
:103BD000E822123BBFA3F0A3F022C082C0838A82F6
:103BE0008B83A3A3A3E0600F8A828B83A3A3A3E4A8
:103BF000F09002B8E014F09002B7E014F070069074
:103C000002B974FFF08A828B83A3A3E4F09003CB04
:103C1000E0700D9002B8E0640170057900121BEBB2
:103C20000230E5C082C083780079009002BEE06077
:103C30000478BB790288828983A3A3A3A3E0F90255
:103C400030E5E0F875F00BA4C8AAF02AF922F58354
:103C5000123F4A2274F6120C6074FC120BF0EAFE5A
:103C6000EBFF803CEE2463F8E43FF97A007B00A28E
:103C7000AFE433F508123CFFEC4D600F123F0E70BD
:103C80000A88828983A3A3E4F0A3F0E508A2E09266
:103C9000AF121C6F9003CCE004F09003CDE004F071
:103CA000EE2463F582E43FF583123F3E70B6900345
:103CB000CDE060358E828F83A3A3A3A3E085158218
:103CC000851683F0A3E4F09003CDE0F87402120CA3
:103CD0003CE8F0A3E4F07402120C56AA15AB167976
:103CE000011219999003CDE4F0EEFAEFFB121A7766
:103CF000EEFAEFFB121B317404120C0602382BC2D1
:103D0000AF88828983E0FCA3E0FD2274F7120C6087
:103D1000EAFEEBFF8E828F83A3A3A3A3E0FA7B00CE
:103D2000121975EEFAEFFB121A83121B13023702F7
:103D300074F6120C60EAFEEBFFEC2403F8E43DF9A4
:103D400088088909EC2407F8E43DF9E8FCE9FD124C
:103D50003D7D120B65EE240D123D71123D7D120B5F
:103D6000658B09EA45096006EE240D123D90023884
:103D70002BF582E43FF583E8F0A3E9F0228C828DF5
:103D800083123F4A850882850983E0FAA3E0FB227B
:103D9000F582E43FF583E02401F0A3E03400F02253
:103DA00074F6120C60EAFEEBFFEE242EF582E43F7F
:103DB000F583123D05780079FAECFAEDFB120B65FC
:103DC000EE246F123D71780079FAECFAEDFB120BDC
:103DD000658B09EA45096006EE246F123D900238B2
:103DE0002B74F4120C60EAFEEBFF121BBB8A088BEB
:103DF000098C0A8D0B90804E7808120A81908036CB
:103E00007808120ACF7808120E6F8E828F83123EC6
:103E1000DF120B131216CD7404120C06E9600302B4
:103E20003ECF8E828F83E02402F8A3E03400F9E8CD
:103E3000FAE9FB740C120C3C7808120AF58A828BA2
:103E4000837808120A949080367808120AF58A82DC
:103E50008B837808120AE2EE240BF582E43FF583A7
:103E6000C082C0838E828F83A3A3A3A3A3E0240177
:103E7000F8A3E03400F9D083D082E0687003A3E0B7
:103E80006970047901804A8E828F83A3A3A3A3A3C0
:103E9000A3A3123D96EE2473123ED764017013EE75
:103EA0002474123EE97003A3E0697006EE247412D4
:103EB0003D90EE247F123ED764017013EE248012F1
:103EC0003EE97003A3E0697006EE2480123D90790C
:103ED00000023169EE2483F582E43FF583E022128B
:103EE0003EE322123F05A3A322123F448E828F831A
:103EF000A3A3A3A3A3A3A3E06822EA246EF582E40C
:103F00003BF583E022E0F8A3E0F5838882228882F3
:103F10008983E0FAA3E0FB8A828B83E0FCA3E0FDC7
:103F200088828983123F34E4F0A3123ACCFCA3E0E8
:103F3000FDEC4D22ECF0A3EDF08A828B8322123F40
:103F40004AE84922F582E43FF583E0F8A3E0F9224C
:103F500074F7120C60E96006F8123F65D8FBECFAC2
:103F6000EDFB0237028C828D83E08A828B83123FC5
:103F70007B8A828B83A3AA82AB8322F08C828D837F
:103F8000A3AC82AD832274F0120C60900460E0F563
:103F90000AA3E0F50BE50A450B70061219E7024289
:103FA0009B850A82850B83E014601814601524FE3B
:103FB000601124C470030240E924C070030240E988
:103FC00002429BE0F9121B258A088B09AE08AF0953
:103FD0009002B8E06074121A7D1242B6AC08FDEE91
:103FE000FAEFFB121B1FE9F50E7402650E60468E98
:103FF000828F83E06401600302429BEE650A7003D6
:10400000EF650B60031219F9E50E7026121BBB8ACF
:104010000C8B0D8C0E8D0F90803E780C120A8190C7
:104020008036780C120ACF8E828F83A3A3780C126D
:104030000B0402417B1242A6121B678E828F83E023
:10404000FA9002B9F079020241CBEE650A7003EFF3
:10405000650B70030242988E828F83E064016003D7
:1040600002429B1219F9121BBB8A088B098C0A8D1C
:104070000B9080767808120A817808120E6F8E8273
:104080008F83A3A3120B131216CD7404120C06E92E
:104090007054121BBB8A088B098C0A8D0B90803ED2
:1040A0007808120A819080367808120ACF8E828FA3
:1040B00083A3A37808120B0490028EE0640270239D
:1040C0008E828F83A3A37808120AF5908046780821
:1040D000120A819080367808120ACF1242A0120B81
:1040E00004800312493702428E9002B8E070030246
:1040F00041E6121A7D1242B69002B9E0F875F00B53
:10410000A4C8AAF02AF974BB28F50A740239F50B81
:1041100090045EE054076076A3E0F9121B258A0E36
:104120008B0FAE0EAF0FAC08AD09121B1FE9F50ED9
:104130007402650E6058850A82850B83A3A3A3A32E
:10414000E0F9121B618E828F83E0640170401219C6
:10415000F9E50E7026121BBB8A0C8B0D8C0E8D0F91
:1041600090803E780C120A81908036780C120ACF2B
:104170008E828F83A3A3780C120B04850882850995
:1041800083A3A37808120AF5908056024276E50CC4
:10419000650A7004E50D650B602A850A82850B832C
:1041A000A3A3A3E0600F850A82850B83A3A3A3A327
:1041B000E0F9121B611242A6121B678E828F83E008
:1041C0009002B9F079029002B9E0FA75F00BA4CA36
:1041D000A8F028FB74BB2AFA74023BFB1211D3AA85
:1041E00008AB0902429890045EE054077003024253
:1041F0009BA3E0F9121B258A088B09AE08AF098E34
:10420000828F83E06401600302429B1219F9121B42
:10421000BB8A088B098C0A8D0B9080767808120A6D
:10422000817808120E6F8E828F83A3A3120B131254
:1042300016CD7404120C06E97054121BBB8A088B4D
:10424000098C0A8D0B90803E7808120A8190803686
:104250007808120ACF8E828F83A3A37808120B04EA
:1042600090028EE0640270238E828F83A3A378086D
:10427000120AF59080467808120A819080367808F4
:10428000120ACF1242A0120B048003124937900485
:104290005F7401F0EEFAEFFB121B197F08020D327A
:1042A000124417780822E50C2404FEE4350DFF8E35
:1042B000828F83E0F922E9F875F00BA4C8AAF02AEE
:1042C000F974BB28F50C740239F50D850C82F58361
:1042D000E0F508A3E0F5092274F0120C60EAFEEBA9
:1042E000FFEE2402F8E43FF988088909EE2406F875
:1042F000E43FF9880A890B8882F583120E8A8508C3
:1043000082850983120B13121B977402120C068507
:104310000A82850B83120E8A850882850983120B17
:1043200013121B8B7402120C06124417120B131279
:104330001B9D8E828F83E064407019EE2412F8E496
:104340003FF988828983E0906064124422A3E09060
:1043500060658006906064E4F0A3F0900460EEF085
:10436000A3EF12492C124DE8120C5E906054E41237
:104370004428A3124428906182E0C2E6F07591BF00
:10438000124922E064017003121BC7E5E170FC12C0
:104390004912E0F46003E0F5E112491CF090029448
:1043A000E06401706F121BBB8A088B098C0A8D0BAD
:1043B0007808120E6F8E828F83A3A3120B1312172D
:1043C000297404120C068A088B098C0A8D0B9080C4
:1043D0005A780C120AF57808790C1209D57403780A
:1043E00008120A55E50824F4F508E5093401F50931
:1043F00090042FE06003121C75E4F50AF50B7808B1
:10440000120E6F7A207B0090028DE0F9121C9F74CF
:1044100004120C0602429BEE240EF582E43FF58363
:1044200022A3F08882898322F0A3F0A3F0A3F0A353
:10443000F0A3F02274EC120C60EAFEEBFF8C088D06
:1044400009EE4F70030244EC121BBB8A0C8B0D8CDF
:104450000E8D0F90807A780C120A81908036780C3D
:10446000120ACF90805EC082C083780C120E6F85D6
:104470000882850983A3A3120B131217297404124F
:104480000C068A108B118C128D13D083D082781079
:104490001209B65057850882850983A3A3780812AC
:1044A0000AF59080627808120A817808120E6F8EE1
:1044B000828F83A3A3120B131216CD7404120C0661
:1044C000E97029908066780C120A81780C120E6FC0
:1044D0008E828F83A3A3120B131216CD7404120CB9
:1044E00006E97004790080067901800279027F0C68
:1044F000020D3274F0120C60890874FF65086003C5
:104500000245AC90045EE054077003024840790411
:10451000121B3DE9640170087904121B43024844F0
:104520007901121B3DE96401703C7A0078627904DC
:1045300088828983E064017006A3E0640160150A43
:10454000E8241CF8500109EAC3940340E37A007B95
:1045500000024844EA75F01CA4F8A9F0746228FA35
:10456000740439FB80EB7902121B3DE96401703C55
:104570007A007862790488828983E064027006A3F5
:10458000E0640160150AE8241CF8500109EAC394AC
:104590000340E37A007B00024844EA75F01CA4F86B
:1045A000A9F0746228FA740439FB80EB7A0078620F
:1045B000790488828983E065087006A3E06401605D
:1045C000210AE8241CF8500109EAC3940340E37E61
:1045D000007F00A908121B3DE964017017750901ED
:1045E0008015EA75F01CA4F8A9F0746228FE740422
:1045F00039FF80DF750900E50814601014700302AC
:1046000046D024FE70030247510248407902121B33
:104610003DE96401706C7A0078627904888289834C
:10462000E064027006A3E0640160520AE8241CF80A
:10463000500109EAC3940340E3750A00750B00E5D5
:1046400009A2E05031850A82850B83A3A3780C125E
:104650000AF590806A780C120A81780C120E6F8E1F
:10466000828F83A3A3120B131216CD7404120C06AF
:10467000E9700302483AAA0AAB0B024844124847C1
:1046800080BD7904121B3DE9640170317A007862C3
:10469000790488828983E064047006A3E064016081
:1046A000170AE8241CF8500109EAC3940340E37593
:1046B0000A00750B0002478412484780F8E509A2FA
:1046C000E05006EEFAEFFB80047A007B00024844DB
:1046D0007904121B3DE9640170307A007862790434
:1046E00088828983E064047006A3E0640160160A8E
:1046F000E8241CF8500109EAC3940340E3750A005A
:10470000750B00807F124847807A7901121B3DE9C2
:104710006401702A7A007862790488828983E0646F
:10472000017006A3E0640160100AE8241CF850013F
:1047300009EAC3940340E380451248478046E509EF
:10474000A2E05006EEFAEFFB80047A007B000248FC
:10475000447901121B3DE9640170657A0078627941
:104760000488828983E064017006A3E0640160C963
:104770000AE8241CF8500109EAC3940340E3750ACF
:1047800000750B00E509A2E04003024676850A8227
:10479000850B83A3A3780C120AF590806A780C121B
:1047A0000A81780C120E6F8E828F83A3A3120B13D3
:1047B0001216CD7404120C06E96003024676807A64
:1047C0007902121B3DE96401706A7A00786279040B
:1047D00088828983E064027006A3E0640160500A65
:1047E000E8241CF8500109EAC3940340E3750A0069
:1047F000750B00E509A2E04003024676850A828532
:104800000B83A3A3780C120AF590806A780C120A25
:1048100081780C120E6F8E828F83A3A3120B13125A
:1048200016CD7404120C06E96003024676800B1262
:10483000484780BFE509A2E05006EEFAEFFB80048E
:104840007A007B0002429BEA75F01CA4F8A9F07480
:104850006228F50A740439F50B2274F7120C60898A
:10486000087A007E627F048E828F83A3E060030259
:1048700048F88E828F83E0F46010900460E0F8A323
:10488000E0F9EE687002EF69606E8E828F83E50852
:10489000F0121BBBEAF8EBF9ECFAEDFB8E828F838A
:1048A000A3A3120B2B8E828F83A3A3A3A3A3A3E4A2
:1048B000F0A3F01249371249127401F012491C1288
:1048C000492CE4F0A3F08E828F83A304F090045E61
:1048D000E04508F090045DE004F06401600C748031
:1048E00065086006744065087008900460EEF0A3E7
:1048F000EFF0EEFAEFFB80150AEE241CFE50010FDC
:10490000EAC3940350030248677A007B007F0102E8
:104910000D32EE2414F582E43FF58322124922740D
:104920000122EE2415F582E43FF58322F0EE241AED
:10493000F582E43FF5832212441774FFF0A3F0A33D
:10494000F0A3F022C082C0838A828B83E0F8A3E0C8
:10495000F98A828B83E4F0124421124421E0F4F8B6
:1049600090045EE058F090045DE014F07014900440
:1049700060E4F0A3F090028EF0FA90028DE0F9125C
:104980001C878005ED9061C6F0D083D08202096952
:10499000C082C08390045DE0600A900460E0FAA3E6
:1049A000E0FB80047A007B0080DFC082C083E9FBEB
:1049B0007800758262758304E06B7016E875F01CF0
:1049C000A4F8A9F0746328F582740439F583E0F93A
:1049D000801308E582241CF58250020583E8C39405
:1049E0000340D5790080A2C082C08378007A627BC0
:1049F000048A828B83E0697018A3E064017012E876
:104A000075F01CA4FAABF074622AFA74043BFB80C4
:104A10001208EA241CFA50010BE8C3940340D27A2E
:104A2000007B0002498974F7120C60EAFEEBFF90EC
:104A300061D0E0C0E0EE2400124B75D0E0F0906150
:104A4000D7E0F89061D5124BA1C0E0EE2401124BE3
:104A500075D0E0F09061D6124BA1F8124AC5E8F08B
:104A600070109061C5E0A2E45008E0A2E750031284
:104A70004B88121C15EE2401F582EF124BF1701CCD
:104A8000124AC5E070169061C5E0A2E4500EE0A2A3
:104A9000E75009124B88EE2401124B8B75E1957A91
:104AA0000080149061D3E0C0E0EAF8EE28F582E4DB
:104AB0003FF583D0E0F00AEE2400124B7D40E47510
:104AC000E19102490DEE2402F582EF3401F58322D3
:104AD00074F7120C60EAFEEBFF9061C8E0C0E0EEF4
:104AE0002403124B75D0E0F09061CFE0F89061CDD7
:104AF000124BA1C0E0124B96D0E0F09061CE124B69
:104B0000A1F8EE2405124B75E8F070139061C5E032
:104B1000A2E0500BE0A2E35006EE2405124B8B12EC
:104B20001C1B124B96E07024EE2405F582EF124B0D
:104B3000F170199061C5E0A2E05011E0A2E3500CC1
:104B4000EE2405124B8B124B967480F0121C217AC6
:104B50000080149061CBE0C0E0EAF8EE28F8E43F72
:104B6000124C42D0E0F00AEE2403124B7D40E47573
:104B7000E18102490DF582EF3401F58322F582EFE0
:104B8000124BF5F8EAC39822EE2402F582EF3401C5
:104B9000F5837480F022EE2404F582EF3401F5836E
:104BA00022E0C398547F22C082C0839061C6E0FD9A
:104BB000E0540FF075E1917C008010ECF8EA28F5E4
:104BC00082E43BF583E09061D2F00CEA2400124CC1
:104BD0004D40E8EA2402124BEE60049061D6F0EA00
:104BE0002401124BEE60049061D5F0024984F582F5
:104BF000EB124BF5223401F583E022C082C0839092
:104C000061C6E0FDE054F0F075E1817C008010ECBD
:104C1000F8EA28F8E43B124C42E09061CAF00CEA52
:104C20002403124C4D40E8EA2405124BEE60049038
:104C300061CEF0EA2404124BEE60049061CDF002E4
:104C40004984F9E82480F582E439F58322F582EB82
:104C5000124BF5F8ECC3982274F4120C60124DCD8F
:104C6000121B4FEEFAEFFB121B49750A80750B0001
:104C7000780A120E737C007D60EE2406FAEF340190
:104C8000FB121ACB7402120C06906195E0C0E0EEA4
:104C90002486124B75D0E0F0906196E0C0E0EE24DF
:104CA00087124B75D0E0F0906197E0C0E0EE248869
:104CB000124B75D0E0F0906198E0C0E0EE248912CC
:104CC0004B75D0E0F07F04020D3274F2120C6012CA
:104CD0004DCD121B5BEEFAEFFB121B55750C0975DF
:104CE0000D00780C120E73EE2406FCEF3401FD7AF1
:104CF000007B60121ACB7402120C06750C18780C2B
:104D0000120E73EE2410FCEF3401FD7A0A7B601260
:104D10001ACB7402120C06750C2C780C120E73EE62
:104D2000245AFCEF3401FD7A547B60121ACB7402D2
:104D3000120C06EE2486F582EF124DC5EE2487F59F
:104D400082EF124DBDEE2488F582EF124DB5EE24B0
:104D500089F582EF124DAEF0E50875F00BA4C50899
:104D6000A8F028F50974BB2508F58274023509F509
:104D700083124DE8E06480700790028E7408801EF4
:104D800090128C124DF1124DF1740DF0A3741B12A0
:104D90004DF77473F0A3741BF090028E7407F090BB
:104DA000129A124E02A3124E027F06020D32124BCD
:104DB000F590619822124BF5906197F022124BF515
:104DC000906196F022124BF5906195F0228908A827
:104DD00008E875F08AA4C8AAF02AF974B628FE7407
:104DE0000439FFEEFAEFFB22E0F8A3E0F5838882B6
:104DF00022746DF0A3741BF0A3746DF0A3741BF008
:104E0000A322740D124E10124E10F0A3741BF02248
:104E1000F0A3741BF0A3740D2274F0120C607901DE
:104E2000121B3DE9640170679003E4E06401701FA8
:104E3000121BA97AD17B03121B319003E1E4F075B8
:104E4000E1F17A02FB90028DE0F9121C5D804012C4
:104E50001AAD125691120A81125662120A6E908091
:104E600036780C120ACF8A828B83780C120B04904E
:104E7000804A780C120A81908036780C120ACF1280
:104E800056F4780C120B041256DF74131256760285
:104E9000560374EC120C607901121B3DE964016049
:104EA000030253759003E1E4F07AD17B03121B31C6
:104EB000121A718A088B09AE08AF098E828F83A3FC
:104EC000A3A37401F09002B8E004F07940121B2B08
:104ED0008A088B09A808A9098E828F83E8F0A3E9C4
:104EE000F0E82406FCE439FDE82402FAE439FB1278
:104EF0001BB5E5D9E5D9A2E6E433C0E0EE240AF516
:104F000082EF3401F583D0E0F0EE2404F8EF3401B1
:104F1000F9E84970087806E5D9D8FC801DEE24042C
:104F2000F582EF3401F583E5822406F8E43583F950
:104F30001253DD7003E9658370F67806E5D9D8FC75
:104F4000EE24221253BE70087804E5D9D8FC8016EE
:104F50001253A5E5822404F8E43583F91253DD7079
:104F600003E9658370F61253A5120B13121BFDEEB5
:104F700024261253BE70087803E5D9D8FC80161297
:104F8000539BE5822403F8E43583F91253DD700363
:104F9000E9658370F612539B7808120AF590803603
:104FA0007808120ACFAA08AB09AC0AAD0B121BD9BC
:104FB000E5D9C0E01253B4D0E0F0EE242C1253BE79
:104FC0007006E5D9E5D9801AE5D9C0E0125391D031
:104FD000E0F0E5D9C0E0EE242DF582E43FF583D082
:104FE000E0F0EE242E1253BE7006E5D9E5D9801A02
:104FF000E5D9C0E01253C5D0E0F0E5D9C0E0EE2419
:105000002FF582E43FF583D0E0F01253AFC333F0C5
:10501000EE242C12542A242E12542A24201253BE79
:105020007006E5D9E5D9801AE5D9C0E0125387D0DA
:10503000E0F0E5D9C0E0EE2421F582E43FF583D02D
:10504000E0F0EE24321253BE7006E5D9E5D9802097
:10505000E5D9C0E0EE2432F582E43FF583D0E0F0FC
:10506000E5D9C0E0EE2433F582E43FF583D0E0F0EB
:10507000E8FAE9FB8A828B83E0F50AA3E0F50B747A
:1050800004780A120BDD850A08850B098A828B8356
:10509000E508F0A3E509F0E4F50AF50B125387E003
:1050A0002401F50CA3E03400F50DE4F50EF50F1224
:1050B00053C5E0F8A3E0F9E828F8E933F988108946
:1050C00011E4F512F513780C79101209D5780879E6
:1050D0000C12099650081253C512560E70167A40DB
:1050E0007B0090028DE0F9121C5DEEFAEFFB121AC4
:1050F00083025375EE242BFCE43FFDEEFAEFFB1226
:105100001A8FEE240BF582E43FF5837405F0A3E4D7
:10511000F0EEFAEFFB121A95EE245D1253BE700A00
:105120007805E5D918E8601E80F8EE245DF582E484
:105130003FF583E5822405F8E43583F91253DD70E9
:1051400003E9658370F6E5D9F50CC4135407F9EE4D
:10515000242AF582E43FF583E9F012181812537DF2
:10516000EAF0A3EBF0E50C541FC0E0EE2437F58223
:10517000E43FF583D0E0F0EE245DFCE43FFDEEFA81
:10518000EFFB121A6B121C27121BF77904121C0377
:105190007901121C099060607480F075E1F1901241
:1051A0008C1253E51253E5740DF0A3741B1253EBEC
:1051B0007473F0A3741BF090129A1253F6A3125357
:1051C000F67A047B0090028DE0F9121C5DEE242C2F
:1051D00012543E8A0C8B0DE4F50EF50F90804E783C
:1051E0000C120A81EA4B600C125391E064027002C7
:1051F000A3E0702FEE242E1253CF780C7908120AF8
:105200006E7C027D00EEFAEFFB120EB8E9F912197E
:10521000238E828F8312541B8E828F83A3A31254FA
:105220001B80107C017D00EEFAEFFB120EB8E9F94D
:105230001219238E828F831256AE780C120A949024
:1052400080367808120AF58A828B837808120AE27F
:10525000EE2412F508E43FF5097808120E73125394
:105260007D120E8AEE241DF582E43FF583120E8A2C
:10527000AA0CAB0DAC0EAD0F12186B7406120C0617
:10528000EE2418F582E43FF583780C120B04AC0889
:10529000AD0912540D1217A77C307D8012540D12E7
:1052A00017A78E828F83E0F8A3E0F988828983A311
:1052B000A3E82408FCE439FD7406120B448E828FA7
:1052C00083E0F50AA3E0F50BE50A240EF582E43548
:1052D0000BF58374FFF0A3F0A3F0A3F0E50A24120A
:1052E000F8E4350BF9E8FAE9FB1253AFFC850882C4
:1052F000850983780C120AF57401780C120BDDEC29
:10530000250CF8E4350DF9E875F071A4C8ACF0751A
:10531000F002A42CFC75F071E9A42CF98A828B832D
:10532000E8F0A3E9F0EE24161253CF7404780812C3
:105330000BCEE5082401F8E43509F98A828B83E075
:1053400028F0A3E039F08A828B83E02410F0A3E0F8
:105350003401F0E50A2414F582E4350BF58374106A
:10536000F08E828F83125685741DF0A3741AF0900C
:10537000028E7407F0121B137F0C020D32EE241004
:10538000F582E43FF58322EE2420F582E43FF583A5
:1053900022EE242CF582E43FF58322EE2426F582CA
:1053A000E43FF58322EE2422F582E43FF5832212C6
:1053B00053B4E022EE242BF582E43FF58322F8E497
:1053C0003FF9E84922EE242EF582E43FF58322F5E9
:1053D00082E43FF583E0F508A3E0F50922E5D9F082
:1053E000A3E8658222746DF0A3741BF0A3746DF0C2
:1053F000A3741BF0A322740D125404125404F0A3DE
:10540000741BF022F0A3741BF0A3740D228E828F04
:1054100083E02402FAA3E03400FB22A3A3A3A3A306
:10542000E02401F0A3E03400F02212543EEA2AFA0C
:10543000EB33FB88828983EAF0A3EBF0EE22F8E4F9
:105440003FF988828983E0FAA3E0FB2274F0120C12
:1054500060121BDFE970089003E5E0F9121BE575A7
:10546000E181907803E064427056900430E014F0DB
:10547000704EC2AF125477007822D0E0F618D0E018
:10548000F6E59F5407F870057509FF800375097FDD
:10549000C4C0E07821E6F50808E65509F509740B63
:1054A0007808120BCED0E02508F8906270E0A2E7F1
:1054B00040F8E8C333906272F0906270E0D2E0F09E
:1054C0007901121B3DE96401600302555412560B29
:1054D0006006125616121C5D9003E9E06401704CE0
:1054E00012563AF5D97582D4758303125631700479
:1054F000E583640370F59003EAE0600A78EB7903D2
:10550000FA125624DAFB1256511256317004E58312
:10551000640370F590040AE0600A780B7904FA12CB
:105520005624DAFB75E1959003E9E4F0121AAD1206
:105530005691120A81125662120A6E908036780CC9
:10554000120ACF8A828B83780C120B041256C07415
:105550001212567602560374F0120C6075E1811235
:105560001BDFE970089003E5E0F9121BE5790112F1
:105570001B3DE96401600302560312560B600612DC
:105580005616121C5D9003E9E06401704E12563A03
:105590004406F5D97582D47583031256317004E53B
:1055A00083640370F59003EAE0600A78EB7903FA0C
:1055B000125624DAFB1256511256317004E58364F8
:1055C0000370F590040AE0600A780B7904FA125629
:1055D00024DAFB75E1959003E9E4F0121AAD125656
:1055E00091120A81125662120A6E908036780C125D
:1055F0000ACF8A828B83780C120B041256C0741562
:10560000125676121B137F08020D3290042BE0F81D
:10561000A3E0F9E8492290042BE0FAA3E0FB900410
:105620002AE0F92288828983E0F5D9A3A882A98398
:1056300022E0F5D9A3E58264DA2275E191A312563E
:105640004222E02407F5D99003D3E0C4333354C099
:105650002290040A1256424404F5D97582D4758307
:1056600003229003E2E0F508A3E0F509E4F50AF56A
:105670000B780C790822F09003D11256857417F03C
:10568000A3741AF0221256EE241AF582E438F58338
:1056900022E9FC9003D11256AEEC75F0118485F02E
:1056A0000885080CE4F50DF50EF50F780C22E024C2
:1056B00002F8A3E03400F9E8FAE9FB8A828B83223E
:1056C0001256EB2406F582E438F583E4F0A3F012D9
:1056D00056F474FFF0A3F0A3F0A3F01256DF2212E9
:1056E00056EB2414F582E438F583229003D1E0F8D8
:1056F000A3E0C8221256EB240EF582E438F583228B
:1057000074F0120C6075E181121BDFE970089003E0
:10571000E5E0F9121BE57901121B3DE96401706BAC
:1057200012560B6006125616121C5D9003E9E064D7
:1057300001703012563A4402F5D97582D47583034C
:105740001256317004E583640370F59003EAE0605B
:105750000A78EB7903FA125624DAFB75E195900387
:10576000E9E4F0121AAD125691120A811256621231
:105770000A6E908036780C120ACF8A828B83780C5E
:10578000120B041256C07414125676025603C082CD
:10579000C08353BFEF7901121B3DE96401700C7A9D
:1057A000D17B03121B319003E1E4F075E1F1121B90
:1057B00013D083D08202096974F7120C6074FF2938
:1057C000F804C313FE6032EA28FCE43BFDEAF8EB80
:1057D000F9EEFF88828983E0FA8C828D83E08882EB
:1057E0008983F0EA8C828D831260DBA882A983EC26
:1057F00024FFED34FF1CFDDFDA8003121ADD7F0188
:10580000020D32C082C08390618FE0F902592F747B
:10581000F4120C608908E9700579120258D1906180
:105820009AE0643F70047E0180027E00906186E011
:10583000FF53B4F390619A743FF0A3745AF09061EF
:10584000A0E4F0906184F0E5E170FC75E102750977
:10585000009061BFE070090509E509C394FA40F1C1
:1058600074FA65096029750900E0F50AE0F50BF99D
:10587000E50AF849600A7403687003748069700966
:105880000509E509C394FA40E074FA6509700479E2
:105890001F803EEAF8EBF98508099061BF1258D6DF
:1058A0001258D6E5BC88828983F0A3A882A9831503
:1058B00009E50970E5E5E170FC75E101850BBC8542
:1058C0000ABC1219DBEEF91219EDEF906186F0793E
:1058D000007F04020D32E0F5BDE0F5BDE0F5BDE06E
:1058E000F5BD22C082C083785179041259116459E0
:1058F0007003E9640470F402592FC082C0837859A0
:105900007904125911645D7003E9640470F402595A
:105910002F88828983E08A828B83F088828983A39F
:10592000A882A9838A828B83A3AA82AB83E822D030
:1059300083D08202096974F7120C60ECFEEDFF124D
:105940001AE97508107808120E77EEFCEFFD791051
:10595000740A120C3CE0FAA3E0FB121AD77401128D
:105960000C0679000257FBC082C083EA6C7002EB20
:105970006D60361259ACF0ED900644F0ECA3F0EBFC
:10598000A3F0EAA3F0851582851683E0F8A3E0F979
:10599000E8900649F0E9900648F075D11E75D601E9
:1059A00075D701E5D1A2E050FA02592F900648E0E0
:1059B000541FF090064A7420F0A3745222C082C093
:1059C00083EB90064CF0EAA3F0E9900651125CD606
:1059D00002592F74F7120C60ED90064CF0ECA3F016
:1059E0007409120C3CE0900651125CE4EB900656F0
:1059F000F0EAA3F0E9900659F0900658E054E0F080
:105A000075D11D75D11B75D60275D6040257FEE5FA
:105A1000B354F849F5B343B301E5B3A2E350FA0236
:105A20000969C082C083E5B3548F4450F5B37480D4
:105A300090064CF07400125A6E4406F5B343B3015D
:105A4000E5B3A2E350FA02592FC082C083E5B354F4
:105A50008F4440F5B3EB90064CF0EA125A6E4404C2
:105A6000F5B343B301E5B3A2E350FA02592FA3F013
:105A70009006517410125CDAE5B354F82274F212F5
:105A80000C6074E0120BF08A088B09890BECFEEDB8
:105A9000FF740F550B6004780180027800E9C4544C
:105AA0000F28F50A750C10750D00780C120E737C1A
:105AB000007D807412120C4E121ACB7402120C0666
:105AC0007410120C3C125B93120E73AC08AD097487
:105AD00013120C3CAA82AB83121ACB7402120C066E
:105AE000125CB8E9120C4E121AD17906121ADD7541
:105AF00008107808120E77742F120C3C125DDF121A
:105B00000C4E121AD77401120C067900121ADD74A9
:105B10001F120C3C125CC37910E9120C4E121AD100
:105B20007906121ADDE50AC454F0F9F5087808126E
:105B30000E77EEFCEFFDEEFAEFFB121AD7740112AE
:105B40000C06E50A6011FA53B3F843B3011AE5B342
:105B5000A2E350FAEA70F0A80BEE28F8E43FF985CA
:105B60001582851683E088828983F07401120C3CCB
:105B7000125B9CF07402120C3C125B9CA3F0740349
:105B8000120C3C125B9CA3A3F07420120C067F063F
:105B9000020D327401F0750C0D780C22E0888289B8
:105BA00083A32274F2120C6074E0120BF0EAFEEB95
:105BB000FF89098C0A8D0B740F55096004780180E8
:105BC000027800E9C4540F28F508750C10750D0013
:105BD000780C120E737C007D807402120C4E121A27
:105BE000CB7402120C06851582851683125B931204
:105BF0000E73EEFCEFFD7403120C3CAA82AB831211
:105C00001ACB7402120C06125CB8AA15AB16121A43
:105C1000D17906121ADD742E120C3CE0FEA3E0FFCF
:105C2000750C10780C120E77EEFCEFFD79107411E4
:105C3000120C4E121AD77401120C067900121ADDDA
:105C40007410120C3CE08E828F83F07411120C3CA5
:105C5000125CCFF07412120C3C125CCFA3F07413E0
:105C6000120C3C125CCFA3A3F0740F120C3C125C1C
:105C7000C3125DD17410125CD67906121ADDE508E4
:105C8000C454F0F9F50C780C120E77AC0AAD0BAADF
:105C90000AAB0B121AD77401120C06E5086016F84D
:105CA000E5B354F84402F5B343B30118E5B3A2E3F6
:105CB00050FAE870EB025B89E5B3548F4410F5B3FA
:105CC0007910227401F0E5B3548F4430F5B322E02B
:105CD0008E828F83A322125CDA22125CE475D11DBE
:105CE00075D60222F0900650E054E0F02274F212D1
:105CF0000C6074E0120BF0EAFEEBFF89088C09746B
:105D00000F55096004780180027800ECC4540F2814
:105D1000F50A121AE3750C20750D00780C120E733B
:105D20007C007D807402120C4E121ACB7402120C8D
:105D3000068515828516837449125B95120E73EEE3
:105D4000FCEFFD7403120C3CAA82AB83121ACB74D5
:105D500002120C06740F120C3CE509F07411120CBF
:105D60003C7401F07412120C3CE508F0125DD17421
:105D700020125CD67900121ADD7900121ADDE50ACC
:105D8000C454F0F50B780B120E77742F120C3C12E2
:105D90005DDF120C4E121AD77401120C06E50A6070
:105DA00024AAB3150AE50A600478508002780074CA
:105DB0008F5A48F5B353B3F843B301E5B3A2E350A8
:105DC000FAE50A70DC7430120C3CE0F8A3E0025BE8
:105DD0005EE51690064CF0E515A3F090065122E022
:105DE000FCA3E0FD791074012274F0120C6074F8C9
:105DF000120BF0EAFEEBFF89098C08EE24B3FAE4FB
:105E00003FFB121AE91260F07026125EF6120B1FA9
:105E1000851582851683120B2B126105120C3C121C
:105E20006129120C3C126137120C3C12611480295A
:105E30001260E27025125EF6120B1F851582851620
:105E400083120B2B126105120C3C126129120C3CBF
:105E5000126137120C3C126100F0E508C39411A8DE
:105E6000085004741080027420C398F50A95E0F578
:105E70000B7418120C3CE0F50CA3E0F50D780A1237
:105E80000E737C007D80A808E50C28FAE4350DFB34
:105E9000121ACB7402120C06EE24A6F50AE43FF5A2
:105EA0000B7404120C46880E890F780E120E73784C
:105EB0000C120E73AC08A909AA0AAB0B121AFB74D8
:105EC00004120C06780E120E73AC0CAD0DA908AAC4
:105ED0000AAB0B121AEF7402120C0690807A780C3F
:105EE000120AF5EE125EFD780C120A947408120C78
:105EF000067F08020D321260CE125EFD2224D5F517
:105F000082E43FF5832274F0120C6074F4120BF0FB
:105F1000EAFEEBFF89098C08EE24B3FAE43FFB129A
:105F20001AE91260F070261260BE120B1F851582EE
:105F3000851683120B2B126105120C3C126129127B
:105F40000C3C126137120C3C12610080291260E295
:105F500070251260BE120B1F851582851683120BE9
:105F60002B126105120C3C126129120C3C12613794
:105F7000120C3C126114F0741C120C3CE0F50AA3E4
:105F8000E0F50BA808E50A28F8E4350BF9888289C2
:105F900083E0C0E07404120C3CD0E01260DBE0C08F
:105FA000E07405120C3CD0E01260DBA3E0C0E074AA
:105FB00006120C3CD0E01260DBA3A3E0C0E0740743
:105FC000120C3CD0E0F0E508C39411A8085004740A
:105FD0001080027420C398F50C95E0F50D780C1232
:105FE0000E737C007D80A808E50A28FAE4350BFBD7
:105FF000121ACB7402120C067404120C46880E8915
:106000000F780E120E73AC0AAD0BA908EE24A6FA97
:10601000E43FFB121AF57402120C06850C0E850D76
:106020000F780E120E737C007D80A808E50A28FA0E
:10603000E4350BFB121ACB7402120C067408120C16
:1060400046880C890D780C120E73780A120E73AC08
:1060500008A909EE24A6FAE43FFB121AFB74041205
:106060000C067404120C3CE0F87408120C3CE06856
:1060700070307405120C3CE0F87409120C3CE068B6
:1060800070207406120C3CE0F8740A120C3CE068B4
:1060900070107407120C3CE0F8740B120C3CE068B2
:1060A00060047900801390807A780C120AF5EE1261
:1060B00060C5780C120A947901740C025EEE1260CD
:1060C000CE1260C52224D9F582E43FF58322EE2466
:1060D000A6F8E43FF9E8FCE9FDEE22F08882898326
:1060E000A3228E828F83A3E0F5838882E06440221E
:1060F0008E828F83E0F8A3E0F5838882E0648022BB
:1061000012611AE422851582851683E08C828D83C4
:10611000F074012212611A748022126130A3A3F07C
:106120008C828D83A3A3A3A322126130F074022278
:10613000E08C828D83A322126130A3F07403227459
:10614000EE120C608A088B09890B8C0E8D0F90065D
:1061500041E07009900643E0700302620C900280F7
:10616000E0600302620C890C750D00E92407FAE473
:106170003400FB121C398A108B11AE10AF11EE4F98
:10618000700302621D74186508700474206509604C
:106190000C7417650870047420650970109006432C
:1061A000E0600AF50A8E828F837492800C9006411B
:1061B000E0F50A8E828F837491F0A3740E1267004B
:1061C0007401126708E508F0A3E509F0EE2405F86C
:1061D000E43FF9E8FAE9FBEE2407F8E43FF98A82A4
:1061E0008B83E8F0A3E9F0780C120E73AC0EAD0FC0
:1061F0008A828B83E0FAA3E0FB121C337402120C38
:1062000006EEFAEFFBA90A121C458011780E120E59
:1062100073AC0B790E12196F7402120C067F0A020E
:106220000D321267D612622F740412622FA322124B
:10623000623322F088828983E0FCA3E0F5838C82BC
:106240002274F2120C6089098A0A8B0B8C0874077D
:106250002CFA74FF65096004780380027802E82A4A
:10626000FA7B00121C398A0C8B0DAE0CAF0DEE4F71
:10627000700302635F8E828F837401F0A374FFF05A
:10628000EE2402FAE43FFBEE2404F8E43F126399A3
:10629000E50912637AE02402F8A3E03400F9890DDD
:1062A000E50BF9740E120C3C1263B974FF650960BA
:1062B0002E740325088882850D83126392A37401CE
:1062C000126384E50A126384A3E9F085080A750B5A
:1062D00000780A120E738A828B83E024068066742B
:1062E0000225088882850D83F08C828D83E0C0E0D2
:1062F0008A828B83126364D0E0F08C828D83A3E06A
:10630000C0E012636FD0E0F08C828D83A3A3E0C065
